:020000022000DC
:103000000000012089390300B139030071A10200D9
:10301000B5390300B7390300B939030000000000D7
:10302000000000000000000000000000BB390300A9
:10303000BD39030000000000BF390300C13903009F
:1030400045740200C3390300A1950200B57D02005A
:10305000E95B0300C3390300EDC60300BD41030073
:103060009D4C0300C3390300C3390300C339030077
:10307000C3390300C3390300C3390300C339030054
:10308000FD8003009D720300C3390300C3390300B0
:10309000DD720300C3390300FDA90300C339030037
:1030A000C3390300C3390300C3390300C339030024
:1030B000C3390300C3390300000000000000000012
:1030C000C3390300C3390300C3390300C339030004
:1030D000C3390300C3390300C339030000000000F3
:1030E00000000000000000000000000000000000E0
:1030F00000000000000000000000000000000000D0
:1031000000000000000000000000000000000000BF
:1031100000000000000000000000000000000000AF
:10312000000000000000000000000000000000009F
:10313000000000000000000000000000000000008F
:10314000000000000000000000000000000000007F
:10315000000000000000000000000000000000006F
:10316000000000000000000000000000000000005F
:10317000000000000000000000000000000000004F
:10318000000000000000000000000000000000003F
:10319000000000000000000000000000000000002F
:1031A000000000000000000000000000000000001F
:1031B000000000000000000000000000000000000F
:1031C00000000000000000000000000000000000FF
:1031D00000000000000000000000000000000000EF
:1031E00000000000000000000000000000000000DF
:1031F00000000000000000000000000000000000CF
:1032000010B5054C237833B9044B13B10448AFF320
:1032100000800123237010BDFC2D00200000000061
:10322000F04304000C4B43B10C480D4910B5AFF30B
:1032300000800C48036823B910BD0A48036833B9FD
:103240007047094B002BF7D0BDE810401847064BDC
:10325000002BF5D0184700BF00000000F043040029
:10326000002E0020502D002000000000154B002BE8
:1032700008BF134B9D46A3F5803A00218B460F46AD
:103280001348144A121A19F0C8FC0F4B002B00D037
:1032900098470E4B002B00D09847002000210400D7
:1032A0000D000D48002802D00C48AFF3008019F043
:1032B00051FC200029000DF0EBF919F08BFB00BF49
:1032C00000000800000001200000000000000000D5
:1032D000FC2D0020F46B0020000000000000000026
:1032E00080B500AF0DF088FD00BF80BD80B588B00F
:1032F00000AFF860B9607A607B68002B22D00023B1
:10330000FB610A23BB61BA68FB6913447A681946FA
:1033100000200DF023FD7861FA697B691344FB619D
:103320007A687B69D31A7B607B69002B05D1BB6906
:10333000013BBB61BB69002B03D07B68002BE2D152
:1033400000E000BF00BF2037BD4680BD80B584B01F
:1033500002AF78603960064B00934023054A396814
:10336000786800F01DF800BF0837BD4680BD00BF7B
:10337000ED320200182E002080B483B000AF7860D8
:1033800000BF0C37BD465DF8047B704780B483B046
:1033900000AF786000BF0C37BD465DF8047B704716
:1033A00080B5A0B002AFF860B9607A603B60B868E1
:1033B00003F0D7FE7B68FB643B683B6500237B65BD
:1033C000002387F858300023FB65D7F880303B6630
:1033D00000237B6707F134017B6F0822B86803F094
:1033E00073FF08237B67FB6B3B64BB6B9BB2A7F847
:1033F0004430002387F8483097F8343003F0030353
:10340000DBB2012B35D17B6BC3F39523FB6697F8B9
:103410003430C3F3C203DBB287F8463097F8343058
:10342000C3F38003DBB2002B14BF01230023DBB204
:1034300087F84730BB8EC3F38313DBB2BB66BB6E2A
:103440009A0007F11C017B6FB86803F03DFFBB6E6B
:103450009B007A6F13447B6707F1400207F11C0160
:1034600007F14C0300931346BA6EF86E00F090FE1D
:103470003EE097F8343003F00303DBB2022B37D180
:10348000FB8EC3F389139BB23B6797F83430C3F3C9
:10349000C203DBB287F8463097F83430C3F38003B9
:1034A000DBB2002B14BF01230023DBB287F84730C7
:1034B0003B6F082B28BF08237B6607F114017B6F45
:1034C0007A6EB86803F000FF7A6F7B6E13447B67F7
:1034D0003A6F7B6ED31A3B6707F14C0307F140024A
:1034E00007F11400796E00F0F5FE3B6F002BDFD181
:1034F000B86803F046FE00BF7837BD4680BD80B493
:1035000083B000AF78607B6801225A7200BF0C372D
:10351000BD465DF8047B704780B582B000AF4FF0C8
:10352000FF337B60FFF7DCFE0421054800F06AFDF5
:1035300078600348FFF7E3FF00BF0837BD4680BD52
:10354000682A002080B582B000AF786039607B685F
:103550001B681B6839687868984700BF0837BD4604
:1035600080BD80B582B000AF78607B681B685B6807
:103570007868984700BF0837BD4680BD80B483B0E7
:1035800000AF78600B46FB707B68FA781A7200BF58
:103590000C37BD465DF8047B704780B483B000AF44
:1035A00078607B681B7A18460C37BD465DF8047B53
:1035B000704780B483B000AF78607B6801225A7294
:1035C00000BF0C37BD465DF8047B704780B483B004
:1035D00000AF78607B685B7A18460C37BD465DF8B3
:1035E000047B704790B486B000AF786039607B6828
:1035F0003A6853E8004F44EA020043E8000191F0C2
:10360000000FF6D17C613861F9603B6918461837C4
:10361000BD4690BC704790B486B000AF786039600A
:103620007B683A6853E8004F04EA020043E800016F
:1036300091F0000FF6D17C613861F9607B69184622
:103640001837BD4690BC704780B582B000AF786037
:1036500001217868FFF7C6FF034618460837BD46C4
:1036600080BD80B582B000AF786000217868FFF738
:10367000D2FF034618460837BD4680BD80B586B0E8
:1036800000AF78601F4BFF229A601E4B00221A6029
:103690001C4B00225A601B4B0022C3F81824194B04
:1036A0000022C3F81424174B012283F81C24164867
:1036B00003F0BEFC38613B69002B01D03B691CE084
:1036C000124A134BD31ADB08FB6000237B610FE027
:1036D0007A6913465B0013449B001A460D4B134452
:1036E000BB607B699AB2BB681A807B6901337B61DE
:1036F0007A69FB689A42EBD3002318461837BD4617
:1037000080BD00BF282F002018120400AC44040024
:103710003C440400542D002080B400AF044A054B03
:10372000D31ADB081846BD465DF8047B704700BF1E
:10373000AC4404003C44040080B586B000AF78601F
:103740000B46FB70FB78002B23D0FFF7E5FF3861B9
:1037500000237B6117E07A6913465B0013449B00EA
:103760001A460E4B1344FB60FB685B881A467B6865
:103770001B689A4204D17B687A691A60002309E0C9
:103780007B6901337B617A693B699A42E3D3052304
:1037900000E0002318461837BD4680BD542D002098
:1037A00080B584B000AF78600B46FB70FA783B1DA3
:1037B00011461846FFF7C0FF0346002B07D17B6870
:1037C000DB00054A1344FB60FB681B6800E0002334
:1037D00018461037BD4680BD3C44040080B485B017
:1037E00000AF78600B46FB707B68DB00144A134423
:1037F000BB60FB78013B032B18D801A252F823F0E1
:1038000011380200173802001D3802002538020066
:103810000023FB730DE00023FB730AE0BB681B79F8
:10382000FB7306E0BB685B79FB7302E00023FB736C
:1038300000BFFB7B18461437BD465DF8047B70471C
:103840003C44040080B588B000AF3D48FFF7FCFE63
:103850003C48FFF7F9FE3C4B5B68FB613A4B9B68C9
:103860003B61FA693B69134002339B00364A1344BB
:103870000433BB611BE0FB690133FB61BB695B88FF
:10388000C3F389139BB21A46BB691B88C3F3891320
:103890009BB213441A46FB691344FB61FA693B6906
:1038A000134002339B00284A13440433BB61BB69B5
:1038B0001B7803F00303DBB2002BDCD000237B6119
:1038C00011E07B699B003A461A44FB69591CF96177
:1038D00039690B401C4902339B000B445B68136041
:1038E0007B6901337B617B69012BEAD93B78C3F3A8
:1038F0000103DBB2012B0CD0022B00D012E07B883D
:10390000C3F389139BB203339B08FA691344FB6129
:1039100008E03B88C3F38313DBB21A46FB69134408
:10392000FB6100BF0748FFF79CFEF860FB68002BB7
:1039300002D0054AFB69536000BF2037BD4680BDF9
:10394000403300203C330020282F002080B487B073
:1039500000AFF860B9607A603B603B685A1C3A601F
:103960003A6A134002339B00234A134404337B61B9
:103970007A691378012161F301031370FB6803F086
:103980001003002B14BF01230023D9B27A691378E6
:1039900061F382031370FB68DBB203F00703D9B253
:1039A0007A69137861F3C50313707B68DBB203F0A7
:1039B0000F03D9B27A69138861F389131380BB6846
:1039C000C3F315017A69136861F39F231360FB68E1
:1039D0001B0C7B823B685A1C3A603A6A13407A8A15
:1039E000054902339B000B445A603B6818461C375C
:1039F000BD465DF8047B7047282F002080B588B055
:103A000000AF786039607B680233BB6102237B6161
:103A10000123FB740023FB7207F10B03184602F02D
:103A2000FDFB194B1A683B681A60174B9A68164BD6
:103A30005968154B1B68CB1A13440133FB61BA69F3
:103A40007B691344FB600BE0FFF7FCFE0E4B9A68AA
:103A50000D4B59680C4B1B68CB1A13440133FB61A7
:103A6000FA68FB699A42EFD8074B1A68BB6913449E
:103A7000054A1360FB7A184602F0DBFBFB7C184614
:103A80002037BD4680BD00BF282F002080B58AB0FA
:103A900002AFF860B9607A603B601F4B9B68BB6106
:103AA00007F1140319463868FFF7A8FF0346002BF7
:103AB00023D07A69BB69009313463A68B968F868FD
:103AC000FFF744FF03467B610023FB6111E07B6944
:103AD0005A1C7A61BA691340FA69920079680A44FB
:103AE00012680D4902339B000B445A60FB69013395
:103AF000FB61FA693B689A42E9D3074B93F81C349F
:103B0000002B05D000BF00F0A3F80346002BFAD12C
:103B100000BF2037BD4680BD282F002080B582B071
:103B200000AF786039600023002239687868FFF7B9
:103B3000ADFF00BF0837BD4680BD80B586B000AF81
:103B4000F860B9607A607B687B6107F11402012339
:103B5000B968F868FFF79AFF00BF1837BD4680BD07
:103B600080B586B000AFF860B9607A603B607B6872
:103B70003B613B687B6107F110020223B968F8687A
:103B8000FFF784FF00BF1837BD4680BD80B588B001
:103B900000AFF860B9607A603B607B687B613B682E
:103BA000BB61BB6AFB6107F114020323B968F868C3
:103BB000FFF76CFF00BF2037BD4680BD80B588B0E1
:103BC00000AFF860B9607A603B607B683B613B683E
:103BD0007B61BB6ABB61FB6AFB6107F110020423D6
:103BE000B968F868FFF752FF00BF2037BD4680BDB7
:103BF00080B58AB000AFF860B9607A603B607B68DE
:103C00003B613B687B613B6BBB617B6BFB61BB6B6F
:103C10003B62FB6B7B6207F110020623B968F86810
:103C2000FFF734FF00BF2837BD4680BD80B400AF2A
:103C3000064B5A68054B1B689A420CBF01230023B0
:103C4000DBB21846BD465DF8047B7047282F002084
:103C500080B598B000AFFFF7E9FF0346002B01D015
:103C6000002397E1974B0022C3F81824BFF34F8F2E
:103C7000944B5B68FB65934B9B683B64FA6D3B6CB4
:103C8000134002339B008F4A13440433BB65002367
:103C90007B6500233B650023FB631BE0FB6D013369
:103CA000FB65BB6D5B88C3F389139BB21A46BB6D82
:103CB0001B88C3F389139BB213441A46FB6D13444C
:103CC000FB65FA6D3B6C134002339B007D4A134445
:103CD0000433BB65BB6D1B7803F00303DBB2002B21
:103CE000DCD00023FB6412E0FB6C9B0007F10802B0
:103CF0001A44FB6D591CF965396C0B40714902334C
:103D00009B000B445B681360FB6C0133FB64FB6C32
:103D1000012BE9D93B7A03F00303DBB2022B40F01D
:103D200096807B89C3F389139BB2BB637B89C3F302
:103D300089139BB2502BA8BF50237B637B6B9BB234
:103D4000C3F309039AB27B8962F38F137B817B6B88
:103D500008333B633B7AC3F3C203DBB2FB63396BCB
:103D6000594803F071F978657B6D002B00F0CD8028
:103D7000786D03F0F6F907F108013B6D0822786DC4
:103D800003F08FFA3B6D08333B65FB6DDA433B6C08
:103D9000134001339B00FB627A6BFB6A9A4240D965
:103DA000FB6A002B08D0FA6D3B6C134002339B007A
:103DB000444A1344043300E0444BBB62FB6A002BCB
:103DC00002D0FB6ADBB201E07B6BDBB287F8273005
:103DD000FB6A002B01D03D4B00E000233B62FB6AF5
:103DE000002B06D07B6BDAB2FB6ADBB2D31ADBB2F4
:103DF00000E00023FB7797F827203B6DB96A786DC8
:103E000003F04FFA97F827303A6D13443B653B6A4D
:103E1000002B15D0FA7F3B6D396A786D03F041FABB
:103E20000EE0FA6D3B6C134002339B00254A1344AD
:103E30000433BB613B6D7A6BB969786D03F031FA7D
:103E4000BB6B03339B08FA6D1344FB655DE03B7A63
:103E500003F00303DBB2012B57D13B89C3F3831378
:103E6000DBB2062B28BF0623DBB203F00F03DAB266
:103E70003B8962F389133B813B89C3F38313DBB234
:103E800002337B613B7AC3F3C203DBB2FB637B6922
:103E90009B0019460C4803F0D7F878657B6D002B22
:103EA00033D0786D03F05DF907F108013B6D08220E
:103EB000786D03F0F6F93B6D08333B650023FB6436
:103EC0001BE000BF282F002018120400342F002010
:103ED000FB6D5A1CFA653A6C134002339B002F4A63
:103EE0001344191D3B6D0422786D03F0DAF93B6D24
:103EF00004333B65FB6C0133FB643B89C3F38313E1
:103F0000DBB21A46FB6C9A42E2D87B6D002B3BD0A9
:103F1000224BD3F81034BB64204BD3F81834002B59
:103F20001AD0786D03F02DF92EE0002387F8473082
:103F3000B86CFFF74BFB0346002B02D0012387F838
:103F4000473097F84730002B03D0796DB86CFFF7F6
:103F5000F9FABB6C5B68BB64BB6C002BE5D1786D78
:103F600003F00FF90023FB71FB1D184602F056F910
:103F70000A4BD3F81834002B02D1084AFB6D53606A
:103F8000FB79184602F055F9FFF750FE034683F01F
:103F90000103DBB218466037BD4680BD282F0020E4
:103FA00080B584B000AF0023FB601FE0144BD3F852
:103FB0001034BB600123FB710DE0B868FFF7EDFA28
:103FC00003461A46FB689A4202D10023FB7105E0C2
:103FD000BB685B68BB60BB68002BEED1FB79002B34
:103FE00001D0FB6807E0FB680133FB60FB68092B2D
:103FF000DCDD4FF0FF3318461037BD4680BD00BFF3
:10400000282F002080B584B000AF78600B46FB708D
:10401000FFF7C6FFF860FB68B3F1FF3F01D1FB6813
:104020001EE0FB68DBB219467868FFF7A7FA0E4B73
:10403000D3F81034002B07D10B4A7B68C2F8103438
:104040007B6800225A600AE0074BD3F810345A68A4
:104050007B685A60044BD3F810347A685A60FB6866
:1040600018461037BD4680BD282F002080B582B08D
:1040700000AF0C4BD3F810347B600A4B012283F85D
:104080001C2408E07868FFF794FA7868FFF769FA6B
:104090007B685B687B607B68002BF3D100BF0837CF
:1040A000BD4680BD282F002090B583B000AF78605A
:1040B00039607B68DB7983F00103DBB2002B28D009
:1040C0007B681B7A002B12D07B689B881A467B6822
:1040D0009B7919461046FFF781FB03461A460F4BA2
:1040E00053F822301A460E49386802F0BDFB7B684F
:1040F0009B791A460B4B53F822407B689B88002122
:104100001846FFF74DFB034622460749386802F080
:10411000ABFB00BF0C37BD4690BD00BF882A002016
:10412000A4120400742A0020A812040080B584B0F0
:1041300000AFF860B9601346FB71FB68DB7983F070
:104140000103DBB2002B0FD0FB681B7A002B06D0DB
:104150000C4B1B681A460C49B86802F085FB0B49EA
:10416000B86802F081FB06E0FB79002B03D0074919
:10417000B86802F079FBB86802F05DFB00BF103749
:10418000BD4680BD882A0020A4120400B412040099
:10419000B0B58AB004AFF860B9607A603B60BB6AC2
:1041A0001B7BFB75BB6A00221A73B96A3868FFF77C
:1041B0007BFF7B68062B7FD801A252F823F000BF5B
:1041C000DD410200E7410200F74102000B4202001C
:1041D000294202005142020081420200F968B86A95
:1041E00002F042FB69E0BB681B681A46F968B86ACE
:1041F00002F03AFB61E0BB681A68BB6804331B68D5
:10420000F968B86A02F030FB57E0BB681A68BB680F
:1042100004331968BB6808331B6800930B46F968C0
:10422000B86A02F021FB48E0BB681968BB68043338
:104230001868BB6808331B68BA680C3212680192B0
:10424000009303460A46F968B86A02F00DFB34E0B1
:10425000BB681868BB6804331C68BB6808331B68FC
:10426000BA680C321268B96810310968029101927B
:10427000009323460246F968B86A02F0F5FA1CE09A
:10428000BB681C68BB6804331D68BB6808331B68C7
:10429000BA680C321268B96810310968B86814300D
:1042A000006803900291019200932B462246F96820
:1042B000B86A02F0D9FA00E000BF0022B96A386893
:1042C000FFF734FFBB6AFA7D1A7300BF1837BD468B
:1042D000B0BD00BF80B586B000AFF860B9607A604D
:1042E0003B60BB68082B5BD83B681B7BFB743B685F
:1042F00000221A7339687868FFF7D6FE00237B61C5
:1043000014E07A69BB689A4209D2FA687B6913445F
:104310001B781A462449386802F0A6FA03E02349BC
:10432000386802F0A1FA7B6901337B617B69072B56
:10433000E7D91F49386802F097FA00237B6123E030
:104340007A69BB689A4218D2FA687B6913441B7871
:10435000BB7418F027FC0246BB7C013313441B7866
:1043600003F09703002B01D0BB7C00E02E231A46FC
:104370001049386802F078FA03E00F49386802F013
:1043800073FA7B6901337B617B69072BD8D90122E2
:1043900039687868FFF7CAFE3B68FA7C1A7300E058
:1043A00000BF1837BD4680BDB8120400C01204001B
:1043B000C4120400C8120400CC12040080B483B0FC
:1043C00000AF78604FF0A04318460C37BD465DF84B
:1043D000047B704780B584B000AF78600846114612
:1043E0001A460346FB700B46BB7013467B703B1DA1
:1043F0001846FFF7E3FFF8607A68F978BB785B004E
:1044000019437B789B0019433B7E1B0219433B7F7A
:104410001B041943FB6802F5E07243F8221000BF49
:104420001037BD4680BD80B584B002AF78600023F0
:104430000193002300930023012201217868FFF7F4
:10444000C9FF00BF0837BD4680BD80B584B000AF4E
:1044500078603B1D1846FFF7B1FFF8607B680122CA
:1044600002FA03F31946F86800F095F800BF103718
:10447000BD4680BD80B584B000AF78603B1D184656
:10448000FFF79CFFF8607B68012202FA03F31946EC
:10449000F86800F08FF800BF1037BD4680BD80B5CA
:1044A00084B000AF78603B1D1846FFF787FFF860C7
:1044B000FB68D3F80435BB60BB68DA437B68012135
:1044C00001FA03F31A40FB68C3F808257B68012250
:1044D0009A40BB681A40FB68C3F80C2500BF103730
:1044E000BD4680BD80B582B000AF786039603B6862
:1044F000002B03D17868FFF7BDFF02E07868FFF773
:10450000A4FF00BF0837BD4680BD80B584B000AFB2
:1045100078603B1D1846FFF751FFF860F86800F01F
:1045200020F802467B6822FA03F303F001031846E1
:104530001037BD4680BD80B584B000AF78603B1DAC
:104540001846FFF73BFFF860F86800F017F80246DE
:104550007B6822FA03F303F0010318461037BD46C7
:1045600080BD80B483B000AF78607B68D3F810352D
:1045700018460C37BD465DF8047B704780B483B0A5
:1045800000AF78607B68D3F8043518460C37BD4619
:104590005DF8047B704780B483B000AF7860396009
:1045A0007B683A68C3F8082500BF0C37BD465DF844
:1045B000047B704780B483B000AF786039607B685B
:1045C0003A68C3F80C2500BF0C37BD465DF8047B84
:1045D0007047000080B584B000AF78600E4A7B68F9
:1045E00013441B781846FFF7A6FF0346002B14BFA1
:1045F00001230023FB73FB7B002B14BF012300234B
:10460000DBB283F00103DBB203F00103DBB2184637
:104610001037BD4680BD00BFD012040080B582B007
:1046200000AF7860054A7B6813441B780021184668
:10463000FFF758FF00BF0837BD4680BDD012040009
:1046400080B582B000AF7860054A7B6813441B7860
:1046500001211846FFF746FF00BF0837BD4680BD61
:10466000D012040080B582B000AF00237B6005E06B
:104670007868FFF7E5FF7B6801337B607B68032B7D
:10468000F6D900BF0837BD4680BD80B582B000AF07
:1046900000237B6005E07868FFF7C0FF7B6801338B
:1046A0007B607B68032BF6D900BF0837BD4680BD11
:1046B00080B582B000AF7860054A7B6813441B78F0
:1046C0001846FFF7ECFE00BF0837BD4680BD00BFAF
:1046D000D012040080B582B000AF00237B6009E0F7
:1046E000094A7B6813441B781846FFF79CFE7B68D9
:1046F00001337B607B68032BF2D9FFF7B3FF00BF68
:104700000837BD4680BD00BFD012040080B584B01C
:1047100000AF78600E4A7B6813441B781846FFF799
:10472000F4FE0346002B14BF01230023FB73FB7B25
:10473000002B14BF01230023DBB283F00103DBB2A3
:1047400003F00103DBB218461037BD4680BD00BF41
:10475000D412040080B485B000AF78604FF0FF330E
:10476000BB600023FB600DE00B4AFB6813441B7821
:104770001A467B689A4202D1FB68BB6005E0FB6881
:104780000133FB60FB68032BEED9BB681846143776
:10479000BD465DF8047B7047D412040080B483B03A
:1047A00000AF7860044A7B6813441B7818460C37C6
:1047B000BD465DF8047B7047D412040080B588B014
:1047C00000AFF860B9607A60BB689BB2BB827B685F
:1047D000BB61FB68FB6107F114031A46002144F238
:1047E000010000F053F800BF2037BD4680BD000037
:1047F00080B487B000AFF860B9607A600123FB75C0
:10480000FB7D214AFB6813601F4ABB6853601E4A48
:104810007B689360FB6844F20102934212D044F239
:104820000202934222D17B68174AD360164BDB68A1
:104830001B881A46144B9A61134BDB685B68124A5B
:10484000D36113E07B68104A13610F4B1B699B68AF
:104850000D4A53610C4B1B691B881A460A4B9A611F
:10486000094B1B695B68084AD36100BF72B600BF81
:10487000FB7DDBB2002BFBD162B600BF1C37BD460F
:104880005DF8047B704700BF48330020B0B588B0A6
:1048900002AFF860B9607A60FFF7E8FB00BFFFF78E
:1048A000D7F90346002BFAD1FB6841F2010293428B
:1048B00019D041F20102934202D8012B09D04AE0FB
:1048C00044F20102934228D044F20202934214D0EF
:1048D00041E02E4B1B881B0443F001032C49184672
:1048E000FFF71CF942E0294B1B881B0443F001032E
:1048F00028491846FFF712F938E07B687B61234BA3
:104900001B881B0443F001007B695B681A467B69C6
:104910001B882149FFF724F928E07B683B611B4B8A
:104920001B881B0443F001043B699D683B699B683D
:10493000184602F0DDFC034619463B695B681A46DF
:104940003B691B88019300920B462A461349204677
:10495000FFF734F90AE00D4B1B881B0443F00103F9
:10496000BA680F491846FFF7E8F800BF0D4B1B68FF
:1049700003F00103002B00D0FFDE7A68B968F86805
:10498000FFF736FF00BF1837BD46B0BD542D0020DD
:10499000D8120400F81204001C1304003813040099
:1049A00050130400F0ED00E080B483B000AF7860F5
:1049B0004FF0A04318460C37BD465DF8047B7047A6
:1049C00080B584B000AF7860084611461A460346A9
:1049D000FB700B46BB7013467B703B1D1846FFF700
:1049E000E3FFF8607A68F978BB785B0019437B785D
:1049F0009B0019433B7E1B0219433B7F1B04194359
:104A0000FB6802F5E07243F8221000BF1037BD4684
:104A100080BD80B584B002AF78600023019300238D
:104A200000930023012201217868FFF7C9FF00BF2E
:104A30000837BD4680BD80B584B002AF78600B46B4
:104A4000FB70FA78002301930023009313460022A1
:104A500000217868FFF7B4FF00BF0837BD4680BD6E
:104A600080B584B000AF78603B1D1846FFF79CFF0F
:104A7000F8607B68012202FA03F31946F86800F037
:104A800019F800BF1037BD4680BD80B584B000AFB7
:104A900078603B1D1846FFF787FFF8607B680122AE
:104AA00002FA03F31946F86800F013F800BF103754
:104AB000BD4680BD80B483B000AF786039607B684C
:104AC0003A68C3F8082500BF0C37BD465DF8047B83
:104AD000704780B483B000AF786039607B683A6813
:104AE000C3F80C2500BF0C37BD465DF8047B70474A
:104AF00080B483B000AF786039603A687B68C3F8EF
:104B0000242500BF0C37BD465DF8047B70470000CC
:104B100080B588B002AFF8607A601A460B46FB7227
:104B20001346BB720E4B93F858301846FFF7ADFF93
:104B3000FA7ABB7A00937B68F9680A4802F0D2FFE0
:104B400078617B693B613B69002B04D0064AF02108
:104B50003869FFF733FE00BF1837BD4680BD00BF80
:104B600068330020681304007013040080B500AFA0
:104B7000034B4FF080411846FFF7BAFF00BF80BDDE
:104B80000030004080B489B000AF78607B681B784B
:104B90009B09FB77FB7F012B36D0022B04D0002B27
:104BA00002D000BF002343E07B6808331B789B09D9
:104BB000DBB21A467B6807331B789B001A447B687C
:104BC00006331B789B0203F440631344BB617B688C
:104BD00005331B7803F00F037B617B680A331B7876
:104BE000DB09DBB21A467B6809331B785B0003F0F4
:104BF000060313443B61BB695A1C79693B690B444A
:104C0000073B02FA03F313E07B6809331B781A466B
:104C10007B6808331B781B021A447B6807331B78B8
:104C20001B0403F47C131344FB60FB6801339B02F9
:104C300018462437BD465DF8047B704780B584B0C4
:104C400000AF03463960FB711346BB71504B93F8BC
:104C50002330002B01D0112396E00023FB734C4B33
:104C6000012283F8232097F90730002B1DDA062351
:104C7000FB73474B022283F82320454B772283F8AE
:104C80002820434B002283F82920414B002283F83F
:104C90002A203F4B002283F82B203D4B002283F833
:104CA0002C203B4BFF2283F82D20FB7BFA7902F06E
:104CB0007F02D1B2364A13440A4683F82820FB7B90
:104CC00001333A68120ED1B2314A13440A4683F8CE
:104CD0002820FB7B02333A68120CD1B22C4A1344D1
:104CE0000A4683F82820FB7B03333A68120AD1B2C4
:104CF000274A13440A4683F82820FB7B04333A688A
:104D0000D1B2234A13440A4683F82820FB79402B6A
:104D100002D0482B03D005E09523BB7305E0872321
:104D2000BB7302E0FF23BB7300BFFB7B0533184A54
:104D30001344BA7B83F82820BB79022B02D0032BC3
:104D400005D009E0124B052283F8242009E0104B1E
:104D5000052283F8242004E00D4B012283F824204F
:104D600000BF97F90730002B03DB094B93F8243081
:104D700000E001237B737B7B0E33DBB2054A062107
:104D80000548FFF7C5FE002318461037BD4680BD15
:104D900068330020A03300209033002080B588B015
:104DA00000AFF8607B600B46FB7213463B8101232A
:104DB000FB778E4BDB8B40F2D912934200F0C2801E
:104DC000B3F5ED7F07DA002B0ED040F2C712934205
:104DD00000F08880FFE0B3F5F07F00F0CF80B3F5FE
:104DE000F67F00F0E780F6E0804B9A8A7F4BDA820C
:104DF000CBE07E4B00221A847C4BFF2283F82820D4
:104E00007A4B00221A83794B032283F823206EE029
:104E1000764B1B8C01339AB2744B1A84734B1B8CE8
:104E200044F6206293420DD97B6802221A706F4BC0
:104E30000022DA830223D4E0FB680133FB60FB7AB3
:104E4000013BFB72FB7A002B03D0FB681B78FF2B26
:104E5000F2D0FB7A002B39D0FB681B78FE2B2DD1CA
:104E6000FB680133FB60FB7A013BFB725F4B042262
:104E700083F82320FB7A9AB23B89934228BF1346DA
:104E8000BB820023BB610BE0584BDA68BB6913445B
:104E9000F968BA690A4412781A70BB690133BB61B8
:104EA000BA8ABB699A42EFD8504ABB8A13834F4BE8
:104EB000DA68BB8A13444D4AD36018E07B68052248
:104EC0001A704A4B0022DA8302238AE01023484AF0
:104ED00001214848FFF71CFE0023FB77434B40F2BB
:104EE000C712DA83FB7F002B01D1012379E03F4B0E
:104EF00093F82330032B8BD029E03C4B1B8B3A8952
:104F0000D31AFB82FB8AF02B01D9F023FB82374BAB
:104F1000DA68FB8ADBB201213648FFF7F9FD334B33
:104F2000DA68FB8A1344314AD360304B1A8BFB8A10
:104F300013449AB22D4B1A830023FB772B4B40F27C
:104F4000D912DA83FB7F002B01D1012349E0274BE3
:104F50001B8B3A899A42D0D8244BDB8A013B9AB208
:104F6000224BDA820223224A01212248FFF7D0FD98
:104F70000023FB771D4B4FF4F072DA83FB7F002B8D
:104F800001D101232DE00023FB72184BDB8A002B9B
:104F90007FF42FAF154BFF2283F828200223144AF9
:104FA00001211448FFF7B4FD0023FB770F4B4FF4AA
:104FB000F672DA83FB7F002B01D1012311E00B4B4A
:104FC000002283F823207B6800221A70074B0022FE
:104FD000DA83022305E00023FB77044B0022DA8307
:104FE000032318462037BD4680BD00BF683300202C
:104FF000A03300209033002080B592B000AFF8605D
:105000000B467A60FB72FB681B7887F84730FB68B9
:1050100001331B781A06FB6802331B781B041A4302
:10502000FB6803331B781B021343FA6804321278BF
:1050300013433B64012387F84630B94B9B8BB3F590
:105040000E7F00F02781B3F50E7F17DC40F21322AC
:10505000934268D0B3F5057F05DA002B2DD0B3F568
:10506000047F42D067E240F21922934200F0888028
:1050700040F22622934200F0CA805CE240F26122B4
:10508000934200F0DC8140F2612293420ADC40F25C
:105090004D22934200F0628140F25322934200F08D
:1050A000908148E240F26B22934200F0FA8140F294
:1050B0007122934200F016823DE20122002140203D
:1050C000FFF7BCFDF863FB6BBB63BB6B002B05D02C
:1050D000944A40F20F21B86BFFF770FB002387F86A
:1050E00046308F4B4FF404729A8397F84630002B6A
:1050F00001D1012326E2012200214020FFF79EFD7D
:10510000F863FB6B7B637B6B002B05D0854A40F219
:105110001221786BFFF752FB002387F84630804B53
:1051200040F213229A8397F84630002B01D10123D5
:1051300008E297F8473023F00303002B07D07B6881
:1051400004221A70764B00229A830223FAE103228A
:105150004FF4D5714820FFF771FDF863FB6B3B639B
:105160003B6B002B05D06F4A4FF40671386BFFF78D
:1051700025FB002387F84630694B40F219229A83B9
:1051800097F84630002B01D10123DBE197F8473037
:1051900003F00403002B13D1614A937A032161F3D6
:1051A0000203937297F8473023F00303002B07D0D4
:1051B0007B6804221A705A4B00229A830223C1E1B1
:1051C000574B00221A84564B9B7A03F00703DBB23D
:1051D000032B02D14FF0804300E00023FB62022248
:1051E000F96AE920FFF72AFDF863FB6BBB62BB6A33
:1051F000002B05D04B4A40F22521B86AFFF7DEFAB2
:10520000002387F84630464B40F226229A8397F8CF
:105210004630002B01D1012394E197F8473003F089
:105220000403002B51D03E4A937A012161F302031B
:10523000937297F8473023F0040387F84730384BD0
:105240001B8C01339AB2364B1A84354B1B8CB3F549
:10525000FA6F07D97B6802221A70314B00229A83B9
:1052600002236FE1022200214120FFF7E7FCF863EF
:10527000FB6B7B627B6A002B05D02A4A40F2372108
:10528000786AFFF79BFA002387F84630244B4FF4E7
:105290000E729A8397F84630002B01D1012351E119
:1052A00097F8473023F00303002B07D07B680422D4
:1052B0001A701B4B00229A83022343E197F8473070
:1052C00003F00103002BBAD199E097F8473023F09F
:1052D0000303002B56D07B6804221A70104B002267
:1052E0009A8302232EE10E4B1B8C01339AB20C4B96
:1052F0001A840B4B1B8CB3F5FA6F07D97B6802221B
:105300001A70074B00229A8302231BE1044B9B7AFD
:1053100003F00703DBB2032B06D14FF0804304E018
:1053200068330020701304000023FB620222F96A34
:10533000E920FFF783FCF863FB6B3B623B6A002BC1
:1053400005D0824A4FF41371386AFFF737FA002309
:1053500087F846307E4B40F24D229A8397F84630CC
:10536000002B01D10123EDE097F8473023F0030330
:10537000002B08D07B6804221A70754B00229A8398
:105380000223DFE000BF97F8473003F00103002B52
:10539000A9D1022200217A20FFF750FCF863FB6BB1
:1053A000FB61FB69002B05D0684A40F25221F86985
:1053B000FFF704FA002387F84630654B40F253228A
:1053C0009A8397F84630002B01D10123BAE097F871
:1053D000473023F00303002B07D07B6804221A70A8
:1053E0005B4B00229A830223ACE03B6C03F08043CA
:1053F000002B04D0564A937A43F008039372544B1F
:105400009B7A03F00703DBB2032B2CD001224FF46D
:1054100000715020FFF712FCF863FB6BBB61BB69A6
:10542000002B05D0494A4FF41871B869FFF7C6F947
:10543000002387F84630464B40F261229A8397F862
:105440004630002B01D101237CE097F8473023F050
:105450000303002B07D07B6804221A703C4B002208
:105460009A8302236EE03A4B3A4ADA60384B0122C3
:105470009A82012200214920FFF7E0FBF863FB6BD1
:105480007B617B69002B05D0304A40F26A21786944
:10549000FFF794F9002387F846302D4B40F26B223A
:1054A0009A8397F84630002B01D101234AE097F800
:1054B000473023F00303002B07D07B6804221A70C7
:1054C000234B00229A8302233CE0FB680133FB60FC
:1054D000FB7A013BFB721E4B0022DA831C4B40F22D
:1054E00071229A8307F11303F97A1022F868FFF703
:1054F00055FC0346012B01D8002323E0FB7C002B45
:1055000007D0FA7C7B681A70114B00229A83022321
:1055100018E01048FFF736FB02460D4B5A600C4B63
:105520004FF400721A817B6800221A70084B002227
:105530009A83022306E0002387F84630044B0022BA
:105540009A83032318464837BD4680BD7013040074
:1055500068330020B033002080B588B000AFF86019
:105560000B467A60FB720123FB77394B9B8B40F231
:105570009A22934222D040F2A222934251D0002B91
:105580005CD1FB681B78BB77BB7F23F00303002B48
:1055900007D07B6804221A702D4B00229A830223C5
:1055A00052E0FB680133FB60FB7A013BFB72284B46
:1055B0000022DA83264B40F29A229A8307F11303E2
:1055C000F97A4FF40072F868FFF7E8FB0346012B05
:1055D00001D8002338E0FB7C002B07D0FA7C7B68E5
:1055E0001A701B4B00229A8302232DE0184B9B8AD2
:1055F000012B1BD9012200214C20FFF71FFBB861B2
:10560000BB697B617B69002B05D0124A40F2A12166
:105610007869FFF7D3F80023FB770D4B40F2A22205
:105620009A83FB7F002B01D101230DE07B680022D0
:105630001A70074B00229A83022305E00023FB77B0
:10564000034B00229A83032318462037BD4680BDB2
:10565000683300207013040080B58CB000AFF86090
:105660000B467A60FB72012387F82F30A54B9B8B8A
:10567000B3F5397F00F0C580B3F5397F0BDC40F21C
:10568000C322934255D040F2D322934200F090803F
:10569000002B17D0C5E140F20A32934200F01E8180
:1056A00040F20A32934204DCB3F53B7F00F0CC8039
:1056B000B7E1B3F5487F00F05D81B3F54C7F00F0B2
:1056C0008881AEE1FB681B7887F8233097F8233098
:1056D00023F00303002B07D07B6804221A70894B48
:1056E00000229A830223A3E1864B9B7A03F00703EF
:1056F000DBB2012B35D0834B9B8A012B31D9814BF7
:105700001B69012219465920FFF798FAF861FB69D5
:10571000BB61BB69002B05D07B4A40F2C221B8694E
:10572000FFF74CF8002387F82F30764B40F2C32266
:105730009A8397F82F30002B01D1012378E1FB6881
:105740001B7887F8233097F8233023F00303002BCE
:1057500007D07B6804221A706A4B00229A830223C6
:1057600066E1684B9A8A674BDA82E5E0654B002276
:105770001A83644B042283F82320624BFF2283F8B0
:105780002820604B9B8A012B01D9FC2200E0FE22DD
:105790005C4B83F8292002235C4A02215C48FFF716
:1057A000B7F9002387F82F30564B40F2D3229A8363
:1057B00097F82F30002B2AD1012339E1514B1B8B55
:1057C000C3F50073BB85BB8DF02B01D9F023BB85DE
:1057D0004C4BDB684B4A128B9818BB8DD9B2012316
:1057E0004A4AFFF795F9474B1A8BBB8D13449AB27F
:1057F000444B1A83002387F82F30424B4FF4397201
:105800009A8397F82F30002B02D1012310E100BFBB
:105810003C4B1B8BB3F5007FD0D33A4BDB6803F5D1
:105820000073384AD360374B032283F823200323C5
:10583000364A01213648FFF76BF9002387F82F30ED
:10584000304B4FF43B729A8397F82F30002B01D1E5
:105850000123EDE02B4B93F83A3003F01F03FB7567
:10586000FB7D052B15D0FB7D0B2B02D0FB7D0D2B7B
:1058700007D17B6805221A70224B00229A830223EB
:10588000D6E07B6804221A701E4B00229A83022302
:10589000CEE01C4B00221A8443E01A4B1B8C0133D0
:1058A0009AB2184B1A84174B1B8C44F62062934211
:1058B00007D97B6802221A70124B00229A830223B6
:1058C000B6E01023114A01211148FFF721F9002306
:1058D00087F82F300B4B40F20A329A8397F82F301B
:1058E000002B01D10123A3E00023BB6215E0FA687D
:1058F000BB6A13441B78002B0CD0024B002283F8A8
:1059000023200EE06833002070130400A033002031
:1059100090330020BB6A0133BB62FA7ABB6A9A42B9
:10592000E5D8454B93F82330032BB6D0424BDB8AA6
:10593000013B9AB2404BDA823F4BDB8A002B7FF46B
:1059400015AF3D4B9B8A012B63D93B4BFF2283F85C
:105950002820394BFD2283F829200323374A0221CE
:105960003748FFF7D5F8002387F82F30324B4FF434
:1059700048729A8397F82F30002B01D1012357E00A
:105980002D4B00221A842C4B032283F823203BE06A
:10599000294B1B8C01339AB2274B1A84264B1B8C44
:1059A00044F62062934207D97B6802221A70224B88
:1059B00000229A8302233BE01023204A0121204841
:1059C000FFF7A6F8002387F82F301B4B4FF44C72DB
:1059D0009A8397F82F30002B01D1012328E0002370
:1059E0007B620DE0FA687B6A13441B78002B04D0BD
:1059F000114B002283F8232006E07B6A01337B628F
:105A0000FA7A7B6A9A42EDD80B4B93F82330032B3A
:105A1000BED07B6800221A70074B00229A830223B3
:105A200006E0002387F82F30034B00229A830323DC
:105A300018463037BD4680BD68330020A0330020B3
:105A40009033002080B58CB000AF786039607B68FF
:105A5000DB68FB627B681B7C87F82B30B84BDB8AEA
:105A6000002B05D1B64B93F858301846FEF7F8FFD7
:105A7000B34B93F82330022B05D0B14B93F823306E
:105A8000012B40F0B78097F82B30063B87F82B307E
:105A9000FB6A0633FB627B685B681B784C2B14D176
:105AA00097F82B30002B10D097F82B30013B87F85C
:105AB0002B30FB6A0133FB6207E097F82B30013B88
:105AC00087F82B30FB6A0133FB6297F82B30002BF1
:105AD00003D0FB6A1B78FF2BEFD097F82B30002BFD
:105AE0000FD17B685B681B784C2B08D197F82B3063
:105AF000013387F82B30FB6A013BFB6201E0002396
:105B0000FB62FB6A002B55D18D4B93F82230DBB240
:105B1000012B4FD001237B73894B93F82230DBB2EA
:105B2000013B042B25D801A252F823F0415B02006F
:105B3000415B0200735B0200675B02006D5B020069
:105B400000233B737E4B032283F8222000F090FA5F
:105B500078627B6A002B18D07A4A40F28331786AE7
:105B6000FEF72CFE11E001233B7311E002233B738F
:105B70000EE003233B623B6A002B08D0714A4FF4CE
:105B80006371386AFEF71AFE01E000BF00E000BF53
:105B90006B4B93F858301846FEF762FF684B0322B0
:105BA00083F82220664B1B6807F10C0210469847C9
:105BB00000BFE1E0624B93F82330022B16D1604B1B
:105BC000012283F82320FB6A1B78FB77FB7F23F0FD
:105BD0000103002B0AD15C48594B93F824300E3353
:105BE000DBB25A4A0621FEF793FFC5E0544B002270
:105BF00083F823200623FB74514B93F82230DBB249
:105C0000013B042B00F2A48001A252F823F000BF54
:105C1000255C0200335C0200515D0200975C0200CB
:105C2000EB5C0200464B022283F82220444B002208
:105C30009A8307F1130297F82B301946F86AFFF799
:105C4000DBF90346012B40F28F8000233B74FB7C81
:105C50007B743B4B032283F82220394B93F8583056
:105C60001846FEF7FDFEFB7C002B0BD000F000FA7F
:105C7000B861BB69002B05D0324A40F2B731B86930
:105C8000FEF79CFDFEF772FF2D4B1B6807F110021B
:105C90001046984768E007F1130297F82B30194631
:105CA000F86AFFF759FC0346012B5FD901233B74C7
:105CB000FB7C7B74224B032283F82220204B0022A2
:105CC0009A821F4B0022DA821D4B002283F8232088
:105CD0001B4B93F858301846FEF7C2FE184B1B6852
:105CE00007F110021046984740E007F1130297F8B9
:105CF0002B301946F86AFFF7AFFC0346012B37D962
:105D000002233B74FB7C7B740D4B032283F822201F
:105D10000B4B002283F82320094B00229A82084B68
:105D20000022DA82064B93F858301846FEF798FEA8
:105D3000034B1B6807F110021046984718E000BF9C
:105D4000683300207013040096330020A033002035
:105D500003237B617B69002B0CD0094A4FF47671D9
:105D60007869FEF72BFD05E000BF04E000BF02E00C
:105D700000BF00E000BF00BF3037BD4680BD00BFA0
:105D80007013040080B588B000AFF860B9601346A6
:105D9000FB80294B93F82230DBB2002B01D1082382
:105DA00046E0254B93F82230DBB2032B01D01123C0
:105DB0003EE0FB88002B01D1072339E01E4B042273
:105DC00083F822201C4B9B7A03F00803DBB2002BE4
:105DD00004D1BB685B02184A136102E0164ABB6833
:105DE0001361154AFB68D360134AFB889382124AF9
:105DF000FB88D382104B00229A83FB88012B01D9A8
:105E0000522300E05123FB770B4B1969FB7F0122E2
:105E10001846FEF713FFB861BB697B617B69002BF5
:105E200005D0064A40F202417869FEF7C7FC00231C
:105E300018462037BD4680BD68330020701304002B
:105E400080B588B000AFF860B9601346FB80394B6D
:105E500093F82230DBB2002B01D1082366E0354BEA
:105E600093F82230DBB2032B01D011235EE0FB88D4
:105E7000002B01D1072359E02E4B052283F8222065
:105E80002C4B9B7A03F00803DBB2002B04D1BB68D8
:105E90005B02284A136102E0264ABB681361254A67
:105EA000FB68D360234AFB889382224AFB88D38213
:105EB000204B00229A83FB88012B14D11D4B1B69B8
:105EC000012219465820FEF7B9FEF861FB69BB6153
:105ED000BB69002B05D0184A40F22D41B869FEF786
:105EE0006DFC002322E0134B9B7A03F00703DBB227
:105EF000012B08D10F4B1B69012219465920FEF7CF
:105F00009DFEF86106E0FB8801221946D720FEF7C6
:105F100095FEF861FB697B617B69002B05D0064A21
:105F200040F23C417869FEF749FC002318462037CF
:105F3000BD4680BD683300207013040080B58CB06E
:105F400002AF78603960444B93F82230DBB2002B0B
:105F500001D008237CE03B68002B0FD07B68DB7806
:105F6000FF2B0BD07B685B78FF2B07D07B681B78FF
:105F7000FF2B03D07B689B78FF2B01D1072367E0C1
:105F80007B68DA78344B83F85820334B93F85830D9
:105F90001846FEF73EFD304B93F858301846FEF792
:105FA0005FFD7B689B783B737B681B787B737B68AA
:105FB0005B78BB73FF23FB7307233B74FF237B7466
:105FC0004FF080637B6100233B7600237B7607F1F3
:105FD0000C010023214A224801F07AFC78627B6A96
:105FE0003B623B6A002B05D01E4A40F26541386A8D
:105FF000FEF7E4FB184A3B681360174B012283F855
:106000002220154A937A6FF302039372124A937A0D
:106010006FF3C3039372104B002283F823200E4BBF
:10602000FF2283F828200A2300930F4B01220F49F7
:106030000B4801F057FD78627B6AFB61FB69002B1E
:1060400005D0084A40F27141F869FEF7B7FB00231A
:1060500018462837BD4680BD68330020455A0200E7
:106060006813040070130400A03300209033002054
:1060700080B500AF124B93F82230DBB2002B01D178
:1060800008231AE00E4B93F82230DBB2032B01D029
:10609000112312E00B4801F0D7FC094B93F858305C
:1060A00000211846FEF7C7FC054B002283F8232089
:1060B000034B002283F822200023184680BD00BF36
:1060C000683300206813040080B400AF0B4B93F8D2
:1060D0002230DBB2032B07D0084B93F82230DBB21F
:1060E000002B01D0012300E0002303F00103DBB209
:1060F0001846BD465DF8047B704700BF683300203A
:1061000080B400AF064B93F82230DBB2022B01D9EA
:10611000044B00E000231846BD465DF8047B704741
:10612000683300206C33002080B483B000AFEFF3FD
:1061300010833B603B687B6072B67B6818460C3707
:10614000BD465DF8047B704780B400AF62B600BF07
:10615000BD465DF8047B704780B584B000AF7860C1
:10616000FFF7E2FFF860164B9B68002B1BD1144B26
:1061700001229A60134BD3F88020134B1340104A2E
:106180001360104B104AC3F880200E4BD3F88430B4
:106190000B4A53600B4B4FF0FF32C3F884207B68EF
:1061A00000221A7002E07B6801221A70FB68002B43
:1061B00001D1FFF7C9FF002318461037BD4680BD47
:1061C000686B002000E100E0FC06FFBD80B584B0F4
:1061D00000AF0346FB710F4B9B68002B15D0FB797A
:1061E000002B12D1FFF7A0FFF8600B4A094B1B6888
:1061F0001360094A074B5B685360064B00229A60A4
:10620000FB68002B01D1FFF79FFF002318461037D2
:10621000BD4680BD686B002000E100E080B582B023
:1062200000AF78607868FFF797FF00BF0837BD467A
:1062300080BD80B582B000AF0346FB71FB79184684
:10624000FFF7C4FF00BF0837BD4680BD80B483B0F0
:1062500000AF78600B46FB707B68DA68FB78796882
:10626000098A01FB03F3134418460C37BD465DF859
:10627000047B704780B483B000AF786039603B68BE
:106280007A68D2689B1A7A68128AB3FBF2F3DBB29F
:1062900018460C37BD465DF8047B704780B485B066
:1062A00000AF78607B68002B01D10E231DE07B6876
:1062B0009B681A467B685B68D31AFB737B681B6814
:1062C0007A6852681A6006E07B681A681368591C7D
:1062D0001160FA7B1A70FB7B5A1EFA73002BF3D104
:1062E0007B681B6800221A71002318461437BD46CC
:1062F0005DF8047B704780B584B000AF7860002300
:10630000FB600023BB7207F10A031846FFF786FF04
:106310007B681B681A687B685B689A421DD97B683A
:106320001B681A68013A1A601B681B78194678685E
:10633000FFF78CFFF8607B689B681A467B681B68D8
:106340001B68D31AFB727B681B681B79FA7A9A4226
:1063500003D97B681B68FA7A1A71BB7A1846FFF773
:1063600068FFFB6818461037BD4680BD90B585B004
:1063700000AF786039603B68FB600023FB7207F177
:106380000B031846FFF74AFF7B681B681C68621CFA
:106390001A60F9687868FFF76DFF03462370FB7A8F
:1063A0001846FFF746FF00BF1437BD4690BD80B4C6
:1063B00000AF00BFBD465DF8047B704780B500AFFD
:1063C00001E0FFF7F4FFFFF77FFE0346002BF8D153
:1063D00000BF80BD80B58EB000AF78607B685A7812
:1063E000454B1A70454B1B687B637B6B9B693B631A
:1063F0007B681B78012B2CD0022B48D0002B64D15A
:10640000FFF77EFE03461A683B6B1A603B6B4FF446
:1064100000725A60394B1B689B699B68002B60D0E7
:10642000002387F820307B685B78002B14BF0123A2
:106430000023DBB287F8213000237B623B6B9B6932
:10644000BB623B6B9B687A6B07F120011046984753
:1064500047E02A4B1B689B699B68002B43D00223B3
:106460003B757B685B78002B14BF01230023DBB2F4
:106470007B753B6B0C33BB613B6B9B69FB613B6B7F
:106480009B687A6B07F11401104698472BE01B4B71
:106490001B689B699B68002B27D003233B727B689A
:1064A0005B78002B14BF01230023DBB27B723B6BB4
:1064B0000C33FB603B6B9B693B613B6B9B687A6B6E
:1064C00007F10801104698470FE00323FB62FB6ABF
:1064D000002B0CD00A4A8121F86AFEF76FF900BF41
:1064E00005E000BF04E000BF02E000BF00E000BF25
:1064F0003837BD4680BD00BFC4330020C8330020FC
:10650000AC13040080B58AB000AFF860B9607A605F
:10651000FB683B623B6A9B69FB613B6A1B69B3F5A5
:10652000007F01D0062342E0234B1B68002B01D0E3
:1065300011233CE0FB697A689A61FB69BA689A604A
:106540001D4A3B6A136000237B623B6A14331B497C
:106550001846FFF7F3FC78627B6A002B0DD1BB680D
:10656000002B0AD1FFF72AFF154B1B78DBB2002B5B
:1065700001D1002300E00D237B627B6A002B15D044
:106580000D4B00221A60BB68002B0FD000233B7418
:1065900001237B7400237B61FB699B69BB61FB6901
:1065A0009B6807F110021146F86898477B6A184605
:1065B0002837BD4680BD00BFC8330020D563020028
:1065C000C433002080B588B000AF78607B68FB6181
:1065D000FB699B69BB611A4B1A68FB699A4201D03F
:1065E000112329E0FFF770FD0346002B01D0112392
:1065F00022E0FFF73DFD78617B69002B02D1104B53
:1066000000221A60BB699B68002B14D001233B72E7
:106610007B69002B14BF01230023DBB27B720023B4
:10662000FB60BB699B693B61BB699B6807F1080222
:106630001146786898477B6918462037BD4680BD6B
:10664000C833002080B588B000AF786039607B68BF
:10665000BB61BB699B697B610023FB61264B1A68A8
:10666000BB699A4201D0112342E0FFF72DFD03469A
:10667000002B01D011233BE07B693A680C3307CA39
:1066800083E807003B6898683B6819683B685B686B
:106690009BB21A46FFF776FBF861FB69002B0ED11F
:1066A0007B699B68002B0AD1FFF788FE134B1B7890
:1066B000DBB2002B01D1002300E00D23FB617B69DD
:1066C0009B68002B13D0FB69002B10D002233B7278
:1066D00001237B727B690C33FB607B699B693B61A7
:1066E0007B699B6807F10802114678689847FB6947
:1066F00018462037BD4680BDC8330020C433002073
:1067000080B588B000AF786039607B68BB61BB69D9
:106710009B697B610023FB61264B1A68BB699A4227
:1067200001D0112342E0FFF7CFFC0346002B01D03C
:1067300011233BE07B693A680C3307CA83E8070002
:106740003B6898683B6819683B685B689BB21A466F
:10675000FFF776FBF861FB69002B0ED17B699B6824
:10676000002B0AD1FFF72AFE134B1B78DBB2002B5C
:1067700001D1002300E00D23FB617B699B68002BA6
:1067800013D0FB69002B10D002233B7201237B72D4
:106790007B690C33FB607B699B693B617B699B6810
:1067A00007F10802114678689847FB6918462037B8
:1067B000BD4680BDC8330020C433002080B489B0FA
:1067C00000AFF8600B467A60FB72FB68FB61FB7AF6
:1067D000002B04D0012B0CD000BF062315E07B68F2
:1067E000BB61BB69002B02D0BB6900221A70002379
:1067F0000BE07B68002B01D1072306E07B687B61FF
:10680000FB691A1D7B691A60002318462437BD46B0
:106810005DF8047B704780B485B000AF78607B681A
:10682000FB60FB689B69BB60BB6818461437BD46BC
:106830005DF8047B704780B582B000AF78607B68FC
:106840009B68002B0CD07B685B697A6810697A685A
:1068500011687A68926898477B6800229A6000E025
:1068600000BF0837BD4680BD0EB480B585B000AF0F
:106870007860FB69002B0CD00023FB6007F120033C
:10688000FB6007F10C031A46F969786800F0A8F973
:1068900000E000BF1437BD46BDE8804003B070473C
:1068A00080B582B000AF78600B46FB707B681A68D9
:1068B0007B689B68581C796888601344FA781A7062
:1068C0007B689A687B685B689A4202D37868FFF7B6
:1068D000B2FF00BF0837BD4680BD80B586B000AFAF
:1068E000F860B9607A603B6000237B613B6803F02D
:1068F0000103002B21D00AE0BB680133BB607B6938
:1069000001337B61FB7C1946F868FFF7C9FFBB6860
:106910001B78FB74FB7C002BEED106E07B68013B0F
:106920007B602021F868FFF7BBFF7A687B699A4299
:106930002BD97B68002BF1D127E0BB68002B0BD053
:10694000B86816F0D9FC786106E07B68013B7B6093
:106950002021F868FFF7A4FF7A687B699A420ED974
:106960007B68002BF1D10AE0BB680133BB607B6917
:1069700001337B61FB7C1946F868FFF791FFBB6828
:106980001B78FB74FB7C002BEED100BF1837BD4693
:1069900080BD000080B588B000AFF860B9607A6053
:1069A0003B60BB68FB610123BB6107E0FA697B6860
:1069B000B2FBF3F3FB61BB690133BB61FA697B682E
:1069C0009A42F3D23A68BB699A4201D93B68BB61EB
:1069D000FB6A03F00103002B1FD1BB6A002B1CD004
:1069E000FB6A03F00203002B05D03B68002B02D1A9
:1069F0003023FB7501E02023FB7507E0BB6A013BF8
:106A0000BB62FB7D1946F868FFF74AFFBB6A002BA3
:106A100003D0BA69BB6A9A42F0D30123FB613B6899
:106A2000012B03D93B68013B3B6009E0BA68FB6975
:106A3000B2FBF3F33B613A697B689A4200D205E00E
:106A4000FB697A6802FB03F3FB61E8E7BA68FB695C
:106A5000B2FBF3F33B613B69FA6902FB03F3BA68EB
:106A6000D31ABB60154A3B6913441B781946F86872
:106A7000FFF716FFFA697B68B2FBF3F3FB61FB6972
:106A8000002BE3D1FB6A03F00103002B11D0BB6A9A
:106A9000002B0ED006E0BB6A013BBB622021F868E8
:106AA000FFF7FEFEBB6A002B03D0BA69BB6A9A42AD
:106AB000F1D300BF2037BD4680BD00BF04140400E1
:106AC00080B588B002AFF860B9607A603B60BB689F
:106AD000002BB8BF5B423B6101237B6107E07B6811
:106AE0003A6992FBF3F33B617B6901337B617B681D
:106AF0003A699A42F3DA3A687B699A4201D93B686B
:106B00007B613B6A002B0AD0BB68002B04DB7B6AED
:106B100003F00403002B02D03B6A013B3B627B6A1B
:106B200003F00203002B02D03B68002B16D07B6AD7
:106B300003F00103002B11D13B6A002B0ED006E0BD
:106B40003B6A013B3B622021F868FFF7A9FE3B6AE4
:106B5000002B03D07A693B6A9A42F1D3BB68002BC1
:106B600007DABB685B42BB602D21F868FFF798FE2F
:106B700008E07B6A03F00403002B03D02B21F868A4
:106B8000FFF78EFE7B6A03F00203002B19D07B6AAD
:106B900003F00103002B14D13B68002B11D13B6A99
:106BA000002B0ED006E03B6A013B3B623021F868C7
:106BB000FFF776FE3B6A002B03D07A693B6A9A4264
:106BC000F1D3B9687B6A01933B6A00933B687A68AA
:106BD000F868FFF7DFFE00BF1837BD4680BD000034
:106BE00080B58EB002AFF860B9607A60BB68002BE8
:106BF00000F0E881BB681B7887F82F30BB68013351
:106C0000BB6097F82F30002B00F0D38197F82F301E
:106C1000252B40F0C28100233B620123BB62BB688D
:106C20001B7887F82F3097F82F302D2B04D0302B7E
:106C30000AD02B2B10D017E03B6A43F001033B62D4
:106C4000BB680133BB6012E03B6A43F002033B6266
:106C5000BB680133BB600AE03B6A43F004033B625C
:106C6000BB680133BB6002E00023BB6200BFBB6AAC
:106C7000002BD4D10023FB6197F82F302A2B0CD1A5
:106C80007B681B68191D7A6811601B68FA691344D8
:106C9000FB61BB680133BB601AE0BB681B7887F8F7
:106CA0002F3097F82F302F2B12D997F82F30392B00
:106CB0000ED8BB680133BB60FA6913469B001344CE
:106CC0005B001A4697F82F301344303BFB61D3E743
:106CD00000237B62BB681B7887F82F3097F82F3032
:106CE0002E2B1DD1BB680133BB60BB681B7887F8B6
:106CF0002F3097F82F302F2B12D997F82F30392BB0
:106D00000ED8BB680133BB607A6A13469B001344FC
:106D10005B001A4697F82F301344303B7B62E4E760
:106D2000BB681B7887F82F3097F82F306C2B03D077
:106D300097F82F30682B07D1BB680133BB60BB6865
:106D40001B7887F82F30EFE797F82F30253B532B30
:106D500000F21E8101A252F823F000BF876F0200EB
:106D6000916F0200916F0200916F0200916F02001B
:106D7000916F0200916F0200916F0200916F02000B
:106D8000916F0200916F0200916F0200916F0200FB
:106D9000916F0200916F0200916F0200916F0200EB
:106DA000916F0200916F0200916F0200916F0200DB
:106DB000916F0200916F0200916F0200916F0200CB
:106DC000916F0200916F0200916F0200916F0200BB
:106DD000916F0200916F0200916F0200916F0200AB
:106DE000916F0200916F0200916F0200916F02009B
:106DF000916F0200916F0200916F0200916F02008B
:106E0000916F0200916F0200916F0200916F02007A
:106E1000916F0200916F0200916F0200916F02006A
:106E2000916F0200916F0200136F0200916F0200D8
:106E3000916F0200916F0200916F0200916F02004A
:106E4000916F0200916F0200916F0200916F02003A
:106E5000916F0200AD6E0200CB6E0200916F0200D6
:106E6000916F0200916F0200916F0200CB6E0200E1
:106E7000916F0200916F0200916F0200916F02000A
:106E8000916F0200916F0200536F0200916F020038
:106E9000916F0200376F0200916F0200EF6E0200E7
:106EA000916F0200916F0200136F02007B681B68F4
:106EB000191D7A6811601B68BB62BB6AFB76FB7E9A
:106EC0001946F868FFF7ECFC63E07B681B68191D46
:106ED0007A6811601B68BB623B6A0193FB6900938F
:106EE0007B6A0A22B96AF868FFF7EAFD51E07B681D
:106EF0001B68191D7A6811601B68BB62B96A3B6A1E
:106F00000193FB6900937B6A0A22F868FFF742FD50
:106F10003FE07B681B68191D7A6811601B68BB62C3
:106F2000B96A3B6A0193FB6900937B6A1022F86897
:106F3000FFF730FD2DE07B681B68191D7A68116032
:106F40001B687B613B6AFA697969F868FFF7C5FCE1
:106F50001FE07B681B68191D7A6811601B68BB62A3
:106F60003021F868FFF79CFC7821F868FFF798FC5F
:106F7000B96A002301930823009308231022F868BC
:106F8000FFF708FD05E02521F868FFF789FC00E020
:106F900000BFBB680133BB6005E097F82F3019468E
:106FA000F868FFF77DFCBB681B78002B7FF422AEEE
:106FB00000E000BFFB681B7B002B04D0F868FFF7E4
:106FC0003AFC00E000BF3037BD4680BD90B486B0CB
:106FD00000AF786039607B683A6853E8004F04EB93
:106FE000020043E8000191F0000FF6D17C613861A6
:106FF000F9603B6918461837BD4690BC704790B49D
:1070000086B000AF786039607B683A6853E8004F1B
:10701000A4EB020043E8000191F0000FF6D17C617F
:107020003861F9603B6918461837BD4690BC704717
:1070300080B582B000AF78607868FFF72FF903461B
:1070400018460837BD4680BD80B58AB000AF78606D
:1070500039607B681B8A043BFB613A68FB69134417
:10706000DA1CFB69B2FBF3F3FB767868FFF743F9B0
:1070700078617B69002B01D1002337E07B69002216
:107080001A717B6901225A71FB699AB27B69DA80B5
:107090007B697B62FB7E013B3B617B6A7A681A609D
:1070A00000233B621DE07868FFF725F9F860FB6874
:1070B000002B0ED07B695B790133DAB27B695A71A0
:1070C0007B6AFA681A60FB687A681A60FB687B6200
:1070D00004E0786900F00EF8002307E03B6A013312
:1070E0003B623A6A3B699A42DDD37B69184628378E
:1070F000BD4680BD80B58AB000AF78607B68FB611B
:10710000FB695B79FB767B683B62FB7E013B7B61C5
:1071100000237B6205E03B6A1B683B627B6A0133AC
:107120007B627A6A7B699A42F5D33B6A1B683B6152
:107130007B683B6200237B620BE03B6A1B68FB6061
:10714000396A3869FFF712F9FB683B627B6A0133E1
:107150007B62FA7E7B6A9A42EFD800BF2837BD4631
:1071600080BD80B584B000AF78607B68FB60FB6851
:10717000043301211846FFF729FF00BF1037BD4631
:1071800080BD80B586B000AF78607B687B617B692D
:10719000043301211846FFF732FF0346FB6007F175
:1071A0000C033B613B691B78002B02D17868FFF729
:1071B000A1FF00BF1837BD4680BD80B58CB000AFC1
:1071C000F860B9607A603B60FB68BB61BB69DB88D3
:1071D0007B61FB68FB623B681A1D7B69B2FBF3F3C2
:1071E000BB623B6804337A69B3FBF2F2796901FB55
:1071F00002F29B1A7B623A687B681A447B691344EB
:10720000DA1C7B69B2FBF3F3FB7405E0FB6A1B68D5
:10721000FB62BB6A013BBB62BB6A002BF6D1002359
:107220003B627A697B6AD31AFB61FA697B68934295
:1072300028BF1346FB612DE097F83830002B0BD0A8
:10724000BA683B6AD018FA6A7B6A13440433FA6955
:10725000194615F0D7FC0AE0FA6A7B6A1344181D38
:10726000BA683B6A1344FA69194615F0CBFC00234F
:107270007B62FB6A1B68FB627A68FB69D31A7B60DE
:107280003A6AFB6913443B627A697B68934228BF80
:107290001346FB617B68002BCED100BF3037BD4663
:1072A00080BD80B586B002AFF860B9607A603B609F
:1072B000002300933B687A68B968F868FFF77DFFA0
:1072C00000BF1037BD4680BD80B586B002AFF86004
:1072D000B9607A603B60012300933B687A68B968C3
:1072E000F868FFF76AFF00BF1037BD4680BD000099
:1072F00080B584B000AF7860786800F00DF8F86071
:10730000FB68002B01D0FB6800E0024B18461037E9
:10731000BD4680BD1414040080B487B000AF78600F
:10732000174B7B61174B3B611FE03A697B69D31AAE
:10733000DB10DA0F13445B10DB007A691344FB6047
:10734000FB681B68BB60BA687B689A4202D9FB681D
:107350003B610AE0BA687B689A4203D2FB68083353
:107360007B6102E0FB685B6804E07A693B699A42F2
:10737000DBD3002318461C37BD465DF8047B7047FD
:10738000301704002018040080B483B000AF034617
:10739000FB71094997F907305B09FA7902F01F027E
:1073A000012000FA02F241F8232000BF0C37BD464D
:1073B0005DF8047B704700BF00E100E080B483B05B
:1073C00000AF0346FB71094997F907305B09FA7969
:1073D00002F01F02012000FA02F2603341F823207C
:1073E00000BF0C37BD465DF8047B704700E100E04C
:1073F00080B483B000AF03463960FB7197F9073062
:10740000002B0BDA0D49FB7903F00F03043B3A68BC
:10741000D2B25201D2B20B441A7609E0084997F968
:1074200007303A68D2B25201D2B20B4483F800233B
:1074300000BF0C37BD465DF8047B704700ED00E0EF
:1074400000E100E080B500AF10F0B6FB10F022FDC7
:1074500000BF80BD80B582B000AF03460A46FB7115
:107460001346BB71BA7997F9073011461846FFF7F2
:10747000BFFF97F907301846FFF7A0FF97F90730CD
:107480001846FFF781FF00BF0837BD4680BD0000EA
:1074900080B483B000AF0346FB71094997F9073008
:1074A0005B09FA7902F01F02012000FA02F2203390
:1074B00041F8232000BF0C37BD465DF8047B7047C0
:1074C00000E100E080B483B000AF78600B46FB7051
:1074D000FB787A68134401221A6000BF0C37BD465E
:1074E0005DF8047B704780B485B000AF78600B46D0
:1074F0007B807B887A68134400221A607B887A68D4
:1075000013441B68FB60FB6800BF1437BD465DF881
:10751000047B704780B483B000AF78600B467B80FB
:107520007B887A6813441B68002B14BF0123002357
:10753000DBB218460C37BD465DF8047B704780B45B
:1075400083B000AF786039607B683A68C3F8042381
:1075500000BF0C37BD465DF8047B704780B483B034
:1075600000AF786039607B683A68C3F8082300BFD1
:107570000C37BD465DF8047B704780B483B000AF24
:1075800078607B680722C3F8002500BF0C37BD4632
:107590005DF8047B704780B483B000AF78607B688F
:1075A0000022C3F8002500BF0C37BD465DF8047B00
:1075B000704780B485B000AFF860B9607A603B6016
:1075C000FB68BA68C3F80825FB687A68C3F80C251D
:1075D000FB683A68C3F8102500BF1437BD465DF854
:1075E000047B704780B483B000AF786039603A683C
:1075F0007B68C3F8242500BF0C37BD465DF8047BCB
:10760000704780B485B000AFF860B9601346FB7175
:10761000BA68FB68C3F84425FA79FB68C3F84825C3
:1076200000BF1437BD465DF8047B704780B485B059
:1076300000AFF860B9601346FB71BA68FB68C3F825
:107640003425FA79FB68C3F8382500BF1437BD46E6
:107650005DF8047B704780B485B000AF78600B465E
:10766000FB701346BB70BB78002B14BF01230023B3
:10767000DBB2FB60FB78022B09D0032B0CD0012B73
:1076800000D00EE0FB6843F00203FB6009E0FB68FA
:1076900043F00403FB6004E0FB6843F00603FB6077
:1076A00000BF7B68FA68C3F8542500BF1437BD4695
:1076B0005DF8047B704780B483B000AF78600B4600
:1076C000FB70FA787B68C3F8C02500BF0C37BD4655
:1076D0005DF8047B704780B483B000AF78607B684E
:1076E0000122C3F8502500BF0C37BD465DF8047B6E
:1076F000704780B483B000AF78607B680022C3F825
:10770000502500BF0C37BD465DF8047B704780B440
:1077100083B000AF78607B680122C3F8402500BFCA
:107720000C37BD465DF8047B704780B483B000AF72
:1077300078607B680022C3F8402500BF0C37BD4647
:107740005DF8047B704780B582B000AF0346FB71E3
:1077500097F907301846FFF79BFE00BF0837BD4674
:1077600080BD80B483B000AF78607B6803F0604375
:10777000B3F1005F0CBF01230023DBB218460C37C6
:10778000BD465DF8047B704780B483B000AF78607D
:107790004FF0A04318460C37BD465DF8047B704798
:1077A00080B584B000AF7860084611461A4603469B
:1077B000FB700B46BB7013467B703B1D1846FFF7F2
:1077C000E3FFF8607A68F978BB785B0019437B784F
:1077D0009B0019433B7E1B0219433B7F1B0419434B
:1077E000FB6802F5E07243F8221000BF1037BD4677
:1077F00080BD80B584B002AF786000230193002380
:1078000000930023012201217868FFF7C9FF00BF20
:107810000837BD4680BD80B584B002AF78600B46A6
:10782000FB70FA7800230193002300931346002293
:1078300000217868FFF7B4FF00BF0837BD4680BD60
:1078400080B584B000AF78603B1D1846FFF79CFF01
:10785000F8607B68012202FA03F31946F86800F029
:1078600019F800BF1037BD4680BD80B584B000AFA9
:1078700078603B1D1846FFF787FFF8607B680122A0
:1078800002FA03F31946F86800F013F800BF103746
:10789000BD4680BD80B483B000AF786039607B683E
:1078A0003A68C3F8082500BF0C37BD465DF8047B75
:1078B000704780B483B000AF786039607B683A6805
:1078C000C3F80C2500BF0C37BD465DF8047B70473C
:1078D00080B58CB002AFF860B9607A603B60FB683D
:1078E0005B791A461346DB0013449B00554A134448
:1078F000FB61FB691B7F002B03D00823BB61BB69C5
:107900009CE0FB697A681A60FB693A685A60BB6858
:107910001B7B012B05D8BB681B781846FFF7A5FF1A
:1079200004E0BB681B781846FFF78AFFBB681B782A
:107930001846002301930023009300230022012115
:10794000FFF72EFFBB685B78FF2B09D0BB685B7825
:107950007B62786AFFF789FF786AFFF74AFF02E0E7
:107960004FF0FF337B62BB689B78FF2B07D0BB686F
:107970009B783B620021386AFFF74DFF02E04FF031
:10798000FF333B62BB68DB78FF2B09D0BB68DB7839
:107990001846FFF755FFBB68DB781846FFF729FF4D
:1079A000FB685B791946BB68D878264A0B46DB0032
:1079B0000B449B0013441E3302461A70FB681B687D
:1079C0007B61BB681B7819463B6A7A6A7869FFF766
:1079D000F0FDBB689B6819467869FFF703FEBB683A
:1079E000197BBB685B7B1A467869FFF734FEBB687E
:1079F0005B7919467869FFF75EFEFB691B68002B0F
:107A000003D040217869FFF79AFD7869FFF7B5FD4B
:107A1000FB691B68002B08D0FB6893F90420BB6846
:107A20001B7919461046FFF715FDFB6900225A77AE
:107A3000FB6901221A770023BB61BB69184628370E
:107A4000BD4680BDCC33002080B584B000AF7860E7
:107A50007B685B791A461346DB0013449B00204A7F
:107A60001344FB60FB681B68002B05D07B6893F90F
:107A700004301846FFF767FE7B681B68BB60FB6835
:107A80001B68002B1CD04FF0FF31B868FFF766FD74
:107A9000FB685B7FDBB2002B12D01421B868FFF7C4
:107AA00011FD00BF4FF48271B868FFF733FD034644
:107AB00083F00103DBB2002BF4D1FB6800225A777C
:107AC0004FF48C71B868FFF70EFDB868FFF763FDDF
:107AD000FB6800221A7700BF1037BD4680BD00BF8B
:107AE000CC33002080B588B000AFF860B9603B604F
:107AF0001346FB71BB683B613B68BB61FB793B751F
:107B000097F828303B7707F1100300221946F868F0
:107B100000F0DAF8034618462037BD4680BD80B530
:107B200082B000AF78607B689B7FFF2B04D07B68BE
:107B30009B7F1846FFF784FE7B6800225A777B689C
:107B400000221A727B681B687A6802F108007A6862
:107B500052681146984700BF0837BD4680BD80B5C2
:107B600082B000AF78600B46FB70FB7883F00103B6
:107B7000DBB2002B04D040217868FFF7EFFC03E074
:107B800040217868FFF7DBFC00BF0837BD4680BDA9
:107B900080B582B000AF786039603B6803F00103C4
:107BA000002B03D07868FFF796FD02E07868FFF7B6
:107BB000A0FD3B6803F00203002B03D07868FFF7B9
:107BC000A6FD02E07868FFF7B0FD00BF0837BD46AC
:107BD00080BD80B586B000AFF860B9607A603B6068
:107BE0007B681B68002B0AD07B681B681846FFF770
:107BF000B8FD034683F00103DBB2002B0ED17B6896
:107C00009B68002B11D07B689B681846FFF7A9FD85
:107C1000034683F00103DBB2002B06D0BB680022D1
:107C20005A7710237B617B694AE07B6819687B681F
:107C30001B791A46F868FFF7E4FC7B6899687B6853
:107C40001B7B1A46F868FFF7F1FC4FF48C71F8685B
:107C5000FFF749FC3968F868FFF79AFF3B6803F0C3
:107C60000803002B03D11021F868FFF72BFCBB6839
:107C70001B68002B15D100BF4FF48C71F868FFF71B
:107C800049FC034683F00103DBB2002BF4D1BB684F
:107C90009B7FFF2B11D0BB689B7F1846FFF7D0FD61
:107CA0000BE03B6803F00403002B0CBF012300230F
:107CB000DBB21946F868FFF752FF00237B617B694E
:107CC00018461837BD4680BD90B587B000AFF86044
:107CD000B9607A60FB685B791A461346DB0013448F
:107CE0009B00264A13447B6100233B617B695B7FD9
:107CF000DBB2002B03D011233B613B6939E07B6988
:107D00001B68002B07D07B6803F01403002B02D103
:107D10007B6901225A777B69BA6803F10C04134628
:107D20000FCB84E80F007A6992F821306FF30003DB
:107D300082F821307A6992F821306FF3410382F89A
:107D400021307A6992F821306FF3820382F8213072
:107D50007B699B7FFF2B04D07B699B7F1846FFF7D5
:107D600084FDFB6818687B68BA687969FFF731FFA2
:107D7000034618461C37BD4690BD00BFCC330020DB
:107D800080B582B000AF786039604FF48C7178684C
:107D9000FFF7C0FB0346002B07D04FF48C717868C7
:107DA000FFF7A1FB3868FFF7BAFE00BF0837BD46F2
:107DB00080BD000080B582B000AF054B7B60796864
:107DC0000448FFF7DDFF00BF0837BD4680BD00BF98
:107DD000CC3300200030004080B483B000AF0346B5
:107DE000FB71094997F907305B09FA7902F01F0224
:107DF000012000FA02F2203341F8232000BF0C37A3
:107E0000BD465DF8047B704700E100E080B485B0BA
:107E100000AF78600B467B807B887A681344002231
:107E20001A607B887A6813441B68FB60FB6800BF9C
:107E30001437BD465DF8047B704780B483B000AF53
:107E400078600B467B807B887A6813441B68002B24
:107E500014BF01230023DBB218460C37BD465DF882
:107E6000047B704780B483B000AF786039607B6872
:107E70003A68C3F8042300BF0C37BD465DF8047BA5
:107E8000704780B483B000AF786039607B68D3F806
:107E900004233B681340002B14BF01230023DBB2F3
:107EA00018460C37BD465DF8047B704780B483B03C
:107EB00000AF786039607B683A68C3F8082300BF78
:107EC0000C37BD465DF8047B704780B485B000AFC9
:107ED00078607B68D3F88034FB607B68FA68C3F80D
:107EE0008024FB6818461437BD465DF8047B704754
:107EF00080B483B000AF78607B680422C3F80025AB
:107F000000BF0C37BD465DF8047B704780B483B07A
:107F100000AF78607B680022C3F8002500BF0C37F3
:107F2000BD465DF8047B704780B485B000AFF86053
:107F3000B9607A60FB687A68C3F81425FB68BA6890
:107F4000C3F80C2500BF1437BD465DF8047B7047AD
:107F500080B582B000AF78604FF0FF324FF0FF3154
:107F60007868FFF7E1FF00BF0837BD4680BD80B4E9
:107F700083B000AF78607B68D3F80C3518460C37B7
:107F8000BD465DF8047B704780B483B000AF786075
:107F90007B68D3F8143518460C37BD465DF8047B72
:107FA000704780B483B000AF78607B68D3F8083541
:107FB00018460C37BD465DF8047B704780B483B02B
:107FC00000AF78607B68D3F8103518460C37BD4693
:107FD0005DF8047B704780B485B000AFF860B9608D
:107FE0007A60FB68BA68C3F80825FB687A68C3F84A
:107FF000102500BF1437BD465DF8047B704780B57F
:1080000082B000AF78604FF0FF324FF0FF317868F8
:10801000FFF7E1FF00BF0837BD4680BD80B483B0E5
:1080200000AF78607B68D3F81835DBB218460C37A0
:10803000BD465DF8047B704780B483B000AF7860C4
:108040000B46FB70FA787B68C3F81C2500BF0C3721
:10805000BD465DF8047B704780B483B000AF7860A4
:108060000B46FB70FB787A68134401221A6000BF4C
:108070000C37BD465DF8047B704780B483B000AF19
:1080800078600B46FB701346BB70FA78BB781343DD
:10809000DBB21A467B68C3F86C2500BF0C37BD46BF
:1080A0005DF8047B704780B483B000AF78603960BE
:1080B0007B683A68C3F8242500BF0C37BD465DF8DD
:1080C000047B704780B485B000AF78600B467B803E
:1080D0007B887A68134400221A607B887A6813448C
:1080E0001B68FB60FB6800BF1437BD465DF8047B6E
:1080F000704780B483B000AF78600B467B807B888C
:108100007A6813441B68002B14BF01230023DBB2E1
:1081100018460C37BD465DF8047B704780B483B0C9
:1081200000AF786039607B68D3F800223B681A435F
:108130007B68C3F8002200BF0C37BD465DF8047BA6
:10814000704780B483B000AF786039607B68D3F843
:1081500000223B68DB431A407B68C3F8002200BF63
:108160000C37BD465DF8047B704780B483B000AF28
:10817000786039607B683A68C3F8042300BF0C3725
:10818000BD465DF8047B704780B483B000AF786073
:1081900039607B683A68C3F8082300BF0C37BD46D6
:1081A0005DF8047B704780B485B000AF78607B6871
:1081B000D3F88034FB607B68FA68C3F88024FB68DE
:1081C00018461437BD465DF8047B704780B483B011
:1081D00000AF78607B680822C3F8002500BF0C3729
:1081E000BD465DF8047B704780B483B000AF786013
:1081F0007B680022C3F8002500BF0C37BD465DF840
:10820000047B704780B485B000AFF860B9607A60D5
:10821000FB68BA68C3F80C25FB687A68C3F81425B4
:1082200000BF1437BD465DF8047B704780B582B04F
:1082300000AF78604FF0FF324FF0FF317868FFF702
:10824000E1FF00BF0837BD4680BD80B483B000AFFA
:1082500078607B68D3F80C3518460C37BD465DF85E
:10826000047B704780B483B000AF78607B68D3F83C
:10827000143518460C37BD465DF8047B704780B452
:1082800083B000AF78607B68D3F8083518460C37A8
:10829000BD465DF8047B704780B483B000AF786062
:1082A0007B68D3F8103518460C37BD465DF8047B63
:1082B000704780B485B000AFF860B9607A60FB6841
:1082C000BA68C3F80825FB687A68C3F8102500BFB0
:1082D0001437BD465DF8047B704780B582B000AFAF
:1082E00078604FF0FF324FF0FF317868FFF7E1FF21
:1082F00000BF0837BD4680BD80B483B000AF786052
:108300000B46FB70FB787A68134401221A6000BFA9
:108310000C37BD465DF8047B704780B483B000AF76
:1083200078600B46FB701346BB70FA78BB7813433A
:10833000DBB21A467B68C3F86C2500BF0C37BD461C
:108340005DF8047B704780B483B000AF786039601B
:108350007B683A68C3F8242500BF0C37BD465DF83A
:10836000047B704780B485B000AFF860B9601346F5
:10837000FB71BA68FB68C3F84425FA79FB68C3F857
:10838000482500BF1437BD465DF8047B704780B4B4
:1083900083B000AF78607B68D3F84C3518460C3753
:1083A000BD465DF8047B704780B485B000AFF860CF
:1083B000B9601346FB71BA68FB68C3F83425FA79D3
:1083C000FB68C3F8382500BF1437BD465DF8047B51
:1083D000704780B483B000AF78607B68D3F83C35D9
:1083E00018460C37BD465DF8047B704780B582B0F7
:1083F00000AF0346FB7197F907301846FFF7ECFC16
:1084000000BF0837BD4680BD80B485B000AF78603E
:108410007B681B0BFB7397F90F3018461437BD466A
:108420005DF8047B704780B483B000AF78607B68F0
:1084300003F06043B3F1005F0CBF01230023DBB204
:1084400018460C37BD465DF8047B704780B483B096
:1084500000AF78604FF0A04318460C37BD465DF87A
:10846000047B704780B584B000AF78600846114641
:108470001A460346FB700B46BB7013467B703B1DD0
:108480001846FFF7E3FFF8607A68F978BB785B007D
:1084900019437B789B0019433B7E1B0219433B7FAA
:1084A0001B041943FB6802F5E07243F8221000BF79
:1084B0001037BD4680BD80B584B002AF7860002320
:1084C0000193002300930023012201217868FFF724
:1084D000C9FF00BF0837BD4680BD80B584B002AF7C
:1084E00078600B46FB70FA78002301930023009319
:1084F0001346002200217868FFF7B4FF00BF083759
:10850000BD4680BD80B584B002AF78600023019382
:10851000002300930023012200217868FFF7A2FFC7
:1085200000BF0837BD4680BD80B584B000AF78601D
:108530003B1D1846FFF78AFFF8607B68012202FAAC
:1085400003F31946F86800F004F800BF1037BD4681
:1085500080BD80B483B000AF786039607B683A68D2
:10856000C3F8082500BF0C37BD465DF8047B704793
:1085700080B582B000AF786039603B681B68B3F1AA
:10858000FF3F09D03B681B681846FFF7CDFF3B68EB
:108590001B681846FFF78FFF3B685B68B3F1FF3F2E
:1085A00005D03B685B6800211846FFF796FF7B68A3
:1085B0001B79474A5B0113441C331B78002B41D0C5
:1085C0007B681A683B689B6919461046FFF7BBFE3B
:1085D0007B6818683B68597D3B681B7D1A46FFF72E
:1085E0009CFE7B6818683B6819683B685B681A46A4
:1085F000FFF708FE3B681B7D012B64D13B689B683D
:10860000B3F1FF3F05D03B689B6800211846FFF798
:1086100064FF3B68DB68B3F1FF3F09D03B68DB6870
:108620001846FFF781FF3B68DB681846FFF743FFFA
:108630007B6818683B68D9683B689B681A46FFF7F7
:1086400038FE40E07B681A683B689B691946104613
:10865000FFF729FD7B6818683B68597D3B681B7DE7
:108660001A46FFF70AFD7B6818683B6819683B6883
:108670005B681A46FFF758FC3B681B7D012B22D133
:108680003B689B68B3F1FF3F05D03B689B680021C6
:108690001846FFF722FF3B68DB68B3F1FF3F09D0C4
:1086A0003B68DB681846FFF73FFF3B68DB6818460E
:1086B000FFF701FF7B6818683B68D9683B689B68D7
:1086C0001A46FFF788FC00BF0837BD4680BD00BFD3
:1086D000F033002080B582B000AF78600B46FB70AD
:1086E0007B681B792C4A5B0113441C331B78002BDD
:1086F0002ED07B681B684FF488711846FFF7E2FCA8
:108700007B681B684FF490711846FFF7DBFC7B68B1
:108710001B684FF492711846FFF7D4FC7B681B6806
:108720004FF4A2711846FFF7CDFC7B681B681B490C
:108730001846FFF71AFD7B681B681846FFF764FEB2
:1087400003461A46FB7819461046FEF783FE1FE0E3
:108750007B681B684FF48E711846FFF757FB7B68E8
:108760001B684FF4A2711846FFF750FB7B681B682B
:108770000B491846FFF776FB7B681B681846FFF726
:1087800043FE03461A46FB7819461046FEF762FE82
:1087900000BF0837BD4680BDF03300201003020043
:1087A0008000020080B582B000AF78607B681B79E2
:1087B000144A5B0113441C331B78002B0FD07B68D9
:1087C0001B6811491846FFF7DFFC7B681B681846D9
:1087D000FFF71AFE03461846FFF708FE0EE07B6817
:1087E0001B680A491846FFF761FB7B681B6818463F
:1087F000FFF70AFE03461846FFF7F8FD00BF0837EB
:10880000BD4680BDF0330020100302008402020048
:1088100080B586B000AF78607B681B79354A5B0114
:1088200013441C331B78002B22D07B681B6818462E
:10883000FFF70BFD78617B681B681846FFF712FD98
:1088400038617B681B681846FFF719FDF8607B6884
:108850001B681846FFF720FDB8607B681B68184648
:10886000FFF7E4FC7B681B681846FFF736FD21E044
:108870007B681B681846FFF77AFB78617B681B688A
:108880001846FFF781FB38617B681B681846FFF7C5
:1088900088FBF8607B681B681846FFF78FFBB860A1
:1088A0007B681B681846FFF753FB7B681B681846FC
:1088B000FFF7A5FB7B69B3F1FF3F02D07869FFF7B3
:1088C00021FE3B69B3F1FF3F02D03869FFF71AFE82
:1088D000BB68B3F1FF3F02D0B868FFF713FEFB6837
:1088E000B3F1FF3F02D0F868FFF70CFE00BF183766
:1088F000BD4680BDF033002080B582B000AF786007
:108900007B681B790A4A5B0113441C331B78002BDC
:1089100005D07B681B681846FFF758FC04E07B68AD
:108920001B681846FFF7E4FA00BF0837BD4680BD54
:10893000F033002080B582B000AF78607B681B798F
:108940000A4A5B0113441C331B78002B05D07B685B
:108950001B681846FFF748FC04E07B681B68184654
:10896000FFF7D4FA00BF0837BD4680BDF0330020C2
:1089700080B586B000AFF860B9607A60FB681B799B
:108980005B011E4A13447B6100233B617B69DB7EF4
:10899000002B03D008233B613B692BE0BB685A7F67
:1089A0007B691A77B968F868FFF7E2FD7B697A6836
:1089B0005A60BB681A697B691A607B695B68002B27
:1089C00005D0BB681B7F1946F868FFF783FEF8687F
:1089D000FFF792FF7B690022DA757B6900221A7625
:1089E0007B6900229A757B690122DA767B69002215
:1089F0009A763B6918461837BD4680BDF033002093
:108A000080B584B000AF78607B681B795B010D4A4C
:108A10001344FB607868FFF78DFFFB685B68002BF1
:108A200002D07868FFF7BEFE7868FFF7F1FEFB68BA
:108A30000022DA76FB6800225A6000BF1037BD467C
:108A400080BD00BFF033002080B584B000AF7860F7
:108A500039604FF48E717868FFF7D8F93B689B68EE
:108A60003A68928A92B213441B78FB733B689B8AE4
:108A70009BB201339AB23B689A82FB7B19467868B5
:108A8000FFF7DAFA00BF1037BD4680BD80B584B06D
:108A900000AF78607B681B795B01354A1344BB608B
:108AA0000023FB607B681B684FF48E711846FFF74C
:108AB000ADF97B681B6808211846FFF7CDFA7B6883
:108AC0001B68B9681846FFF7BFFFBB685B68002BDF
:108AD00048D11FE000BF7B681B684FF48E711846B9
